:03000000020800F3
:0C080000787FE4F6D8FD758109020847F6
:1008FE003F065B4F666F7D077F6F777C395E797140
:06090E00010307020207CD
:06092800010800010900B6
:10091400758910758DD8758BF0D2AFD2ABD28E7528
:04092400900180FEC0
:03001B0002088C4C
:10088C00C0E0C083C082C0D075D000C000C0077566
:10089C008DDA758BE40508E508C394024029E50957
:1008AC0090090E939008FE93F4F5A0AF907801EFA9
:1008BC0008800123D8FDF5900509E509C39406408D
:1008CC0006750900759001D007D000D0D0D082D029
:0408DC0083D0E032B3
:1008E000D3EF9400EE940040147D647C00ED1D7005
:0D08F000011CED4C70F7EF1F70E61E80E359
:0108FD0022D8
:10080C00020914E493A3F8E493A34003F68001F2E5
:10081C0008DFF48029E493A3F85407240CC8C333ED
:10082C00C4540F4420C8834004F456800146F6DFBC
:10083C00E4800B0102040810204080900928E47E1B
:10084C00019360BCA3FF543F30E509541FFEE493B1
:10085C00A360010ECF54C025E060A840B8E493A378
:10086C00FAE493A3F8E493A3C8C582C8CAC583CAA3
:10087C00F0A3C8C582C8CAC583CADFE9DEE780BE5B
:01092E0000C8
:00000001FF
