:030000000209E111
:0C09E100787FE4F6D8FD7581220208F64C
:10099B003F065B4F666F7D077F6F777C395E7971A2
:1009AB000002000000020002000100000001000331
:0809BB00000700020002000722
:1008F60078087C007D007BFF7A0979AB7E007F1843
:100906001208D0752001E4F521F522752001E4F5E1
:1009160021F522E520F4F5B0E52225E02408F8E6E5
:10092600FE08E6249BF58274093EF583E493F58080
:100936007F027E001209C3E52025E0F5200522E5A9
:100946002270020521C39406E521940040C5752056
:1009560001752100752206C3E522940CE521940059
:1009660050A9852090E52225E02408F8E6FE08E651
:10097600249BF58274093EF583E493F4F5A07F0287
:100986007E001209C3E52025E0F5200522E5227048
:05099600C6052180C22E
:1009C300D3EF9400EE940040147D647C00ED1D7021
:0D09D300011CED4C70F7EF1F70E61E80E375
:0109E00022F4
:10080000E709F608DFFA8046E709F208DFFA803EDA
:1008100088828C83E709F0A3DFFA8032E309F608C7
:10082000DFFA8078E309F208DFFA807088828C832F
:10083000E309F0A3DFFA806489828A83E0A3F608E3
:10084000DFFA805889828A83E0A3F208DFFA804CBD
:1008500080D280FA80C680D4806980F28033801094
:1008600080A680EA809A80A880DA80E280CA8033FD
:1008700089828A83ECFAE493A3C8C582C8CCC58375
:10088000CCF0A3C8C582C8CCC583CCDFE9DEE78045
:100890000D89828A83E493A3F608DFF9ECFAA9F0C4
:1008A000EDFB2289828A83ECFAE0A3C8C582C8CC1A
:1008B000C583CCF0A3C8C582C8CCC583CCDFEADE33
:1008C000E880DB89828A83E493A3F208DFF980CC95
:1008D00088F0EF60010E4E60C388F0ED2402B4048E
:1008E0000050B9F582EB2402B4040050AF23234535
:0608F00082239008507302
:00000001FF
